{
  "_format": "hh-sol-artifact-1",
  "contractName": "RandomIpfsNFT",
  "sourceName": "contracts/RandomIpfsNFT.sol",
  "abi": [
    {
      "inputs": [
        {
          "internalType": "address",
          "name": "vrfCoordinatorV2_",
          "type": "address"
        },
        {
          "internalType": "uint64",
          "name": "subscitptionId_",
          "type": "uint64"
        },
        {
          "internalType": "bytes32",
          "name": "gasLane_",
          "type": "bytes32"
        },
        {
          "internalType": "uint32",
          "name": "callbackGasLimit_",
          "type": "uint32"
        },
        {
          "internalType": "string[3]",
          "name": "dogTokenURIs_",
          "type": "string[3]"
        },
        {
          "internalType": "uint256",
          "name": "mintFee_",
          "type": "uint256"
        }
      ],
      "stateMutability": "nonpayable",
      "type": "constructor"
    },
    {
      "inputs": [
        {
          "internalType": "address",
          "name": "have",
          "type": "address"
        },
        {
          "internalType": "address",
          "name": "want",
          "type": "address"
        }
      ],
      "name": "OnlyCoordinatorCanFulfill",
      "type": "error"
    },
    {
      "inputs": [],
      "name": "RandomIpfsNFT__NotEoughETH",
      "type": "error"
    },
    {
      "inputs": [],
      "name": "RandomIpfsNFT__RangeOutOfBounds",
      "type": "error"
    },
    {
      "inputs": [],
      "name": "RandomIpfsNFT__TransferFailed",
      "type": "error"
    },
    {
      "anonymous": false,
      "inputs": [
        {
          "indexed": true,
          "internalType": "address",
          "name": "owner",
          "type": "address"
        },
        {
          "indexed": true,
          "internalType": "address",
          "name": "approved",
          "type": "address"
        },
        {
          "indexed": true,
          "internalType": "uint256",
          "name": "tokenId",
          "type": "uint256"
        }
      ],
      "name": "Approval",
      "type": "event"
    },
    {
      "anonymous": false,
      "inputs": [
        {
          "indexed": true,
          "internalType": "address",
          "name": "owner",
          "type": "address"
        },
        {
          "indexed": true,
          "internalType": "address",
          "name": "operator",
          "type": "address"
        },
        {
          "indexed": false,
          "internalType": "bool",
          "name": "approved",
          "type": "bool"
        }
      ],
      "name": "ApprovalForAll",
      "type": "event"
    },
    {
      "anonymous": false,
      "inputs": [
        {
          "indexed": false,
          "internalType": "enum RandomIpfsNFT.Breed",
          "name": "dogBreed_",
          "type": "uint8"
        },
        {
          "indexed": true,
          "internalType": "address",
          "name": "minter_",
          "type": "address"
        }
      ],
      "name": "NftMinted",
      "type": "event"
    },
    {
      "anonymous": false,
      "inputs": [
        {
          "indexed": true,
          "internalType": "uint256",
          "name": "requestId_",
          "type": "uint256"
        },
        {
          "indexed": true,
          "internalType": "address",
          "name": "requester_",
          "type": "address"
        }
      ],
      "name": "NftRequested",
      "type": "event"
    },
    {
      "anonymous": false,
      "inputs": [
        {
          "indexed": true,
          "internalType": "address",
          "name": "previousOwner",
          "type": "address"
        },
        {
          "indexed": true,
          "internalType": "address",
          "name": "newOwner",
          "type": "address"
        }
      ],
      "name": "OwnershipTransferred",
      "type": "event"
    },
    {
      "anonymous": false,
      "inputs": [
        {
          "indexed": true,
          "internalType": "address",
          "name": "from",
          "type": "address"
        },
        {
          "indexed": true,
          "internalType": "address",
          "name": "to",
          "type": "address"
        },
        {
          "indexed": true,
          "internalType": "uint256",
          "name": "tokenId",
          "type": "uint256"
        }
      ],
      "name": "Transfer",
      "type": "event"
    },
    {
      "inputs": [
        {
          "internalType": "address",
          "name": "to",
          "type": "address"
        },
        {
          "internalType": "uint256",
          "name": "tokenId",
          "type": "uint256"
        }
      ],
      "name": "approve",
      "outputs": [],
      "stateMutability": "nonpayable",
      "type": "function"
    },
    {
      "inputs": [
        {
          "internalType": "address",
          "name": "owner",
          "type": "address"
        }
      ],
      "name": "balanceOf",
      "outputs": [
        {
          "internalType": "uint256",
          "name": "",
          "type": "uint256"
        }
      ],
      "stateMutability": "view",
      "type": "function"
    },
    {
      "inputs": [
        {
          "internalType": "uint256",
          "name": "tokenId",
          "type": "uint256"
        }
      ],
      "name": "getApproved",
      "outputs": [
        {
          "internalType": "address",
          "name": "",
          "type": "address"
        }
      ],
      "stateMutability": "view",
      "type": "function"
    },
    {
      "inputs": [
        {
          "internalType": "uint256",
          "name": "moddedRng_",
          "type": "uint256"
        }
      ],
      "name": "getBreedFromModdedRng",
      "outputs": [
        {
          "internalType": "enum RandomIpfsNFT.Breed",
          "name": "",
          "type": "uint8"
        }
      ],
      "stateMutability": "pure",
      "type": "function"
    },
    {
      "inputs": [],
      "name": "getChanceArray",
      "outputs": [
        {
          "internalType": "uint256[3]",
          "name": "",
          "type": "uint256[3]"
        }
      ],
      "stateMutability": "pure",
      "type": "function"
    },
    {
      "inputs": [
        {
          "internalType": "uint256",
          "name": "index_",
          "type": "uint256"
        }
      ],
      "name": "getDogTokenURI",
      "outputs": [
        {
          "internalType": "string",
          "name": "",
          "type": "string"
        }
      ],
      "stateMutability": "view",
      "type": "function"
    },
    {
      "inputs": [],
      "name": "getMintFee",
      "outputs": [
        {
          "internalType": "uint256",
          "name": "",
          "type": "uint256"
        }
      ],
      "stateMutability": "view",
      "type": "function"
    },
    {
      "inputs": [],
      "name": "getTokenCounter",
      "outputs": [
        {
          "internalType": "uint256",
          "name": "",
          "type": "uint256"
        }
      ],
      "stateMutability": "view",
      "type": "function"
    },
    {
      "inputs": [
        {
          "internalType": "address",
          "name": "owner",
          "type": "address"
        },
        {
          "internalType": "address",
          "name": "operator",
          "type": "address"
        }
      ],
      "name": "isApprovedForAll",
      "outputs": [
        {
          "internalType": "bool",
          "name": "",
          "type": "bool"
        }
      ],
      "stateMutability": "view",
      "type": "function"
    },
    {
      "inputs": [],
      "name": "name",
      "outputs": [
        {
          "internalType": "string",
          "name": "",
          "type": "string"
        }
      ],
      "stateMutability": "view",
      "type": "function"
    },
    {
      "inputs": [],
      "name": "owner",
      "outputs": [
        {
          "internalType": "address",
          "name": "",
          "type": "address"
        }
      ],
      "stateMutability": "view",
      "type": "function"
    },
    {
      "inputs": [
        {
          "internalType": "uint256",
          "name": "tokenId",
          "type": "uint256"
        }
      ],
      "name": "ownerOf",
      "outputs": [
        {
          "internalType": "address",
          "name": "",
          "type": "address"
        }
      ],
      "stateMutability": "view",
      "type": "function"
    },
    {
      "inputs": [
        {
          "internalType": "uint256",
          "name": "requestId",
          "type": "uint256"
        },
        {
          "internalType": "uint256[]",
          "name": "randomWords",
          "type": "uint256[]"
        }
      ],
      "name": "rawFulfillRandomWords",
      "outputs": [],
      "stateMutability": "nonpayable",
      "type": "function"
    },
    {
      "inputs": [],
      "name": "renounceOwnership",
      "outputs": [],
      "stateMutability": "nonpayable",
      "type": "function"
    },
    {
      "inputs": [],
      "name": "requestNFT",
      "outputs": [],
      "stateMutability": "payable",
      "type": "function"
    },
    {
      "inputs": [],
      "name": "s_requestId",
      "outputs": [
        {
          "internalType": "uint256",
          "name": "",
          "type": "uint256"
        }
      ],
      "stateMutability": "view",
      "type": "function"
    },
    {
      "inputs": [
        {
          "internalType": "uint256",
          "name": "",
          "type": "uint256"
        }
      ],
      "name": "s_requestIdToSender",
      "outputs": [
        {
          "internalType": "address",
          "name": "",
          "type": "address"
        }
      ],
      "stateMutability": "view",
      "type": "function"
    },
    {
      "inputs": [],
      "name": "s_tokenCounter",
      "outputs": [
        {
          "internalType": "uint256",
          "name": "",
          "type": "uint256"
        }
      ],
      "stateMutability": "view",
      "type": "function"
    },
    {
      "inputs": [
        {
          "internalType": "address",
          "name": "from",
          "type": "address"
        },
        {
          "internalType": "address",
          "name": "to",
          "type": "address"
        },
        {
          "internalType": "uint256",
          "name": "tokenId",
          "type": "uint256"
        }
      ],
      "name": "safeTransferFrom",
      "outputs": [],
      "stateMutability": "nonpayable",
      "type": "function"
    },
    {
      "inputs": [
        {
          "internalType": "address",
          "name": "from",
          "type": "address"
        },
        {
          "internalType": "address",
          "name": "to",
          "type": "address"
        },
        {
          "internalType": "uint256",
          "name": "tokenId",
          "type": "uint256"
        },
        {
          "internalType": "bytes",
          "name": "data",
          "type": "bytes"
        }
      ],
      "name": "safeTransferFrom",
      "outputs": [],
      "stateMutability": "nonpayable",
      "type": "function"
    },
    {
      "inputs": [
        {
          "internalType": "address",
          "name": "operator",
          "type": "address"
        },
        {
          "internalType": "bool",
          "name": "approved",
          "type": "bool"
        }
      ],
      "name": "setApprovalForAll",
      "outputs": [],
      "stateMutability": "nonpayable",
      "type": "function"
    },
    {
      "inputs": [
        {
          "internalType": "bytes4",
          "name": "interfaceId",
          "type": "bytes4"
        }
      ],
      "name": "supportsInterface",
      "outputs": [
        {
          "internalType": "bool",
          "name": "",
          "type": "bool"
        }
      ],
      "stateMutability": "view",
      "type": "function"
    },
    {
      "inputs": [],
      "name": "symbol",
      "outputs": [
        {
          "internalType": "string",
          "name": "",
          "type": "string"
        }
      ],
      "stateMutability": "view",
      "type": "function"
    },
    {
      "inputs": [
        {
          "internalType": "uint256",
          "name": "tokenId",
          "type": "uint256"
        }
      ],
      "name": "tokenURI",
      "outputs": [
        {
          "internalType": "string",
          "name": "",
          "type": "string"
        }
      ],
      "stateMutability": "view",
      "type": "function"
    },
    {
      "inputs": [
        {
          "internalType": "address",
          "name": "from",
          "type": "address"
        },
        {
          "internalType": "address",
          "name": "to",
          "type": "address"
        },
        {
          "internalType": "uint256",
          "name": "tokenId",
          "type": "uint256"
        }
      ],
      "name": "transferFrom",
      "outputs": [],
      "stateMutability": "nonpayable",
      "type": "function"
    },
    {
      "inputs": [
        {
          "internalType": "address",
          "name": "newOwner",
          "type": "address"
        }
      ],
      "name": "transferOwnership",
      "outputs": [],
      "stateMutability": "nonpayable",
      "type": "function"
    },
    {
      "inputs": [],
      "name": "withdraw",
      "outputs": [],
      "stateMutability": "nonpayable",
      "type": "function"
    }
  ],
  "bytecode": "0x6101406040523480156200001257600080fd5b50604051620043513803806200435183398181016040528101906200003891906200080b565b6040518060400160405280600f81526020017f52616e646f6d2049504653204e465400000000000000000000000000000000008152506040518060400160405280600381526020017f52494e0000000000000000000000000000000000000000000000000000000000815250878073ffffffffffffffffffffffffffffffffffffffff1660808173ffffffffffffffffffffffffffffffffffffffff1660601b81525050508160009080519060200190620000f59291906200029e565b5080600190805190602001906200010e9291906200029e565b5050506200013162000125620001d060201b60201c565b620001d860201b60201c565b8573ffffffffffffffffffffffffffffffffffffffff1660a08173ffffffffffffffffffffffffffffffffffffffff1660601b815250508467ffffffffffffffff1660c08167ffffffffffffffff1660c01b815250508360e081815250508263ffffffff166101008163ffffffff1660e01b8152505081600b906003620001ba9291906200032f565b508061012081815250505050505050506200092b565b600033905090565b6000600760009054906101000a900473ffffffffffffffffffffffffffffffffffffffff16905081600760006101000a81548173ffffffffffffffffffffffffffffffffffffffff021916908373ffffffffffffffffffffffffffffffffffffffff1602179055508173ffffffffffffffffffffffffffffffffffffffff168173ffffffffffffffffffffffffffffffffffffffff167f8be0079c531659141344cd1fd0a4f28419497f9722a3daafe3b4186f6b6457e060405160405180910390a35050565b828054620002ac90620008f5565b90600052602060002090601f016020900481019282620002d057600085556200031c565b82601f10620002eb57805160ff19168380011785556200031c565b828001600101855582156200031c579182015b828111156200031b578251825591602001919060010190620002fe565b5b5090506200032b919062000396565b5090565b82805482825590600052602060002090810192821562000383579160200282015b8281111562000382578251829080519060200190620003719291906200029e565b509160200191906001019062000350565b5b509050620003929190620003b5565b5090565b5b80821115620003b157600081600090555060010162000397565b5090565b5b80821115620003d95760008181620003cf9190620003dd565b50600101620003b6565b5090565b508054620003eb90620008f5565b6000825580601f10620003ff575062000420565b601f0160209004906000526020600020908101906200041f919062000396565b5b50565b6000604051905090565b600080fd5b600080fd5b600073ffffffffffffffffffffffffffffffffffffffff82169050919050565b6000620004648262000437565b9050919050565b620004768162000457565b81146200048257600080fd5b50565b60008151905062000496816200046b565b92915050565b600067ffffffffffffffff82169050919050565b620004bb816200049c565b8114620004c757600080fd5b50565b600081519050620004db81620004b0565b92915050565b6000819050919050565b620004f681620004e1565b81146200050257600080fd5b50565b6000815190506200051681620004eb565b92915050565b600063ffffffff82169050919050565b62000537816200051c565b81146200054357600080fd5b50565b60008151905062000557816200052c565b92915050565b600080fd5b6000601f19601f8301169050919050565b7f4e487b7100000000000000000000000000000000000000000000000000000000600052604160045260246000fd5b620005ad8262000562565b810181811067ffffffffffffffff82111715620005cf57620005ce62000573565b5b80604052505050565b6000620005e462000423565b9050620005f28282620005a2565b919050565b600067ffffffffffffffff82111562000615576200061462000573565b5b602082029050919050565b600080fd5b600080fd5b600067ffffffffffffffff82111562000648576200064762000573565b5b620006538262000562565b9050602081019050919050565b60005b838110156200068057808201518184015260208101905062000663565b8381111562000690576000848401525b50505050565b6000620006ad620006a7846200062a565b620005d8565b905082815260208101848484011115620006cc57620006cb62000625565b5b620006d984828562000660565b509392505050565b600082601f830112620006f957620006f86200055d565b5b81516200070b84826020860162000696565b91505092915050565b60006200072b6200072584620005f7565b620005d8565b9050806020840283018581111562000748576200074762000620565b5b835b818110156200079657805167ffffffffffffffff8111156200077157620007706200055d565b5b808601620007808982620006e1565b855260208501945050506020810190506200074a565b5050509392505050565b600082601f830112620007b857620007b76200055d565b5b6003620007c784828562000714565b91505092915050565b6000819050919050565b620007e581620007d0565b8114620007f157600080fd5b50565b6000815190506200080581620007da565b92915050565b60008060008060008060c087890312156200082b576200082a6200042d565b5b60006200083b89828a0162000485565b96505060206200084e89828a01620004ca565b95505060406200086189828a0162000505565b94505060606200087489828a0162000546565b935050608087015167ffffffffffffffff81111562000898576200089762000432565b5b620008a689828a01620007a0565b92505060a0620008b989828a01620007f4565b9150509295509295509295565b7f4e487b7100000000000000000000000000000000000000000000000000000000600052602260045260246000fd5b600060028204905060018216806200090e57607f821691505b60208210811415620009255762000924620008c6565b5b50919050565b60805160601c60a05160601c60c05160c01c60e0516101005160e01c610120516139bc6200099560003960008181610cf80152610d1e01526000610df801526000610db401526000610dd501526000610d7801526000818161094f01526109a301526139bc6000f3fe60806040526004361061019c5760003560e01c8063715018a6116100ec578063a36f573b1161008a578063c87b56dd11610064578063c87b56dd146105a7578063e89e106a146105e4578063e985e9c51461060f578063f2fde38b1461064c5761019c565b8063a36f573b14610504578063a51cccf314610541578063b88d4fde1461057e5761019c565b8063804079ad116100c6578063804079ad146104485780638da5cb5b1461048557806395d89b41146104b0578063a22cb465146104db5761019c565b8063715018a6146103fc5780637a5caab3146104135780637abd25d11461043e5761019c565b806323b872dd116101595780635dacf5f4116101335780635dacf5f41461032c5780636352211e146103575780636e02007d1461039457806370a08231146103bf5761019c565b806323b872dd146102c35780633ccfd60b146102ec57806342842e0e146103035761019c565b806301ffc9a7146101a157806306fdde03146101de578063081812fc14610209578063095ea7b3146102465780630b21a83b1461026f5780631fe543e31461029a575b600080fd5b3480156101ad57600080fd5b506101c860048036038101906101c39190612593565b610675565b6040516101d591906125db565b60405180910390f35b3480156101ea57600080fd5b506101f3610757565b604051610200919061268f565b60405180910390f35b34801561021557600080fd5b50610230600480360381019061022b91906126e7565b6107e9565b60405161023d9190612755565b60405180910390f35b34801561025257600080fd5b5061026d6004803603810190610268919061279c565b61082f565b005b34801561027b57600080fd5b50610284610947565b60405161029191906127eb565b60405180910390f35b3480156102a657600080fd5b506102c160048036038101906102bc919061294e565b61094d565b005b3480156102cf57600080fd5b506102ea60048036038101906102e591906129aa565b610a0d565b005b3480156102f857600080fd5b50610301610a6d565b005b34801561030f57600080fd5b5061032a600480360381019061032591906129aa565b610b21565b005b34801561033857600080fd5b50610341610b41565b60405161034e9190612aa8565b60405180910390f35b34801561036357600080fd5b5061037e600480360381019061037991906126e7565b610b6c565b60405161038b9190612755565b60405180910390f35b3480156103a057600080fd5b506103a9610c1e565b6040516103b691906127eb565b60405180910390f35b3480156103cb57600080fd5b506103e660048036038101906103e19190612ac3565b610c28565b6040516103f391906127eb565b60405180910390f35b34801561040857600080fd5b50610411610ce0565b005b34801561041f57600080fd5b50610428610cf4565b60405161043591906127eb565b60405180910390f35b610446610d1c565b005b34801561045457600080fd5b5061046f600480360381019061046a91906126e7565b610f2d565b60405161047c919061268f565b60405180910390f35b34801561049157600080fd5b5061049a610fdd565b6040516104a79190612755565b60405180910390f35b3480156104bc57600080fd5b506104c5611007565b6040516104d2919061268f565b60405180910390f35b3480156104e757600080fd5b5061050260048036038101906104fd9190612b1c565b611099565b005b34801561051057600080fd5b5061052b600480360381019061052691906126e7565b6110af565b6040516105389190612755565b60405180910390f35b34801561054d57600080fd5b50610568600480360381019061056391906126e7565b6110e2565b6040516105759190612bd3565b60405180910390f35b34801561058a57600080fd5b506105a560048036038101906105a09190612ca3565b6111c4565b005b3480156105b357600080fd5b506105ce60048036038101906105c991906126e7565b611226565b6040516105db919061268f565b60405180910390f35b3480156105f057600080fd5b506105f9611339565b60405161060691906127eb565b60405180910390f35b34801561061b57600080fd5b5061063660048036038101906106319190612d26565b61133f565b60405161064391906125db565b60405180910390f35b34801561065857600080fd5b50610673600480360381019061066e9190612ac3565b6113d3565b005b60007f80ac58cd000000000000000000000000000000000000000000000000000000007bffffffffffffffffffffffffffffffffffffffffffffffffffffffff1916827bffffffffffffffffffffffffffffffffffffffffffffffffffffffff1916148061074057507f5b5e139f000000000000000000000000000000000000000000000000000000007bffffffffffffffffffffffffffffffffffffffffffffffffffffffff1916827bffffffffffffffffffffffffffffffffffffffffffffffffffffffff1916145b80610750575061074f82611457565b5b9050919050565b60606000805461076690612d95565b80601f016020809104026020016040519081016040528092919081815260200182805461079290612d95565b80156107df5780601f106107b4576101008083540402835291602001916107df565b820191906000526020600020905b8154815290600101906020018083116107c257829003601f168201915b5050505050905090565b60006107f4826114c1565b6004600083815260200190815260200160002060009054906101000a900473ffffffffffffffffffffffffffffffffffffffff169050919050565b600061083a82610b6c565b90508073ffffffffffffffffffffffffffffffffffffffff168373ffffffffffffffffffffffffffffffffffffffff1614156108ab576040517f08c379a00000000000000000000000000000000000000000000000000000000081526004016108a290612e39565b60405180910390fd5b8073ffffffffffffffffffffffffffffffffffffffff166108ca61150c565b73ffffffffffffffffffffffffffffffffffffffff1614806108f957506108f8816108f361150c565b61133f565b5b610938576040517f08c379a000000000000000000000000000000000000000000000000000000000815260040161092f90612ecb565b60405180910390fd5b6109428383611514565b505050565b600a5481565b7f000000000000000000000000000000000000000000000000000000000000000073ffffffffffffffffffffffffffffffffffffffff163373ffffffffffffffffffffffffffffffffffffffff16146109ff57337f00000000000000000000000000000000000000000000000000000000000000006040517f1cf993f40000000000000000000000000000000000000000000000000000000081526004016109f6929190612eeb565b60405180910390fd5b610a0982826115cd565b5050565b610a1e610a1861150c565b82611782565b610a5d576040517f08c379a0000000000000000000000000000000000000000000000000000000008152600401610a5490612f86565b60405180910390fd5b610a68838383611817565b505050565b610a75611a7e565b600047905060003373ffffffffffffffffffffffffffffffffffffffff1682604051610aa090612fd7565b60006040518083038185875af1925050503d8060008114610add576040519150601f19603f3d011682016040523d82523d6000602084013e610ae2565b606091505b5050905080610b1d576040517f530322ae00000000000000000000000000000000000000000000000000000000815260040160405180910390fd5b5050565b610b3c838383604051806020016040528060008152506111c4565b505050565b610b49612462565b6040518060600160405280600a8152602001601e81526020016064815250905090565b6000806002600084815260200190815260200160002060009054906101000a900473ffffffffffffffffffffffffffffffffffffffff169050600073ffffffffffffffffffffffffffffffffffffffff168173ffffffffffffffffffffffffffffffffffffffff161415610c15576040517f08c379a0000000000000000000000000000000000000000000000000000000008152600401610c0c90613038565b60405180910390fd5b80915050919050565b6000600a54905090565b60008073ffffffffffffffffffffffffffffffffffffffff168273ffffffffffffffffffffffffffffffffffffffff161415610c99576040517f08c379a0000000000000000000000000000000000000000000000000000000008152600401610c90906130ca565b60405180910390fd5b600360008373ffffffffffffffffffffffffffffffffffffffff1673ffffffffffffffffffffffffffffffffffffffff168152602001908152602001600020549050919050565b610ce8611a7e565b610cf26000611afc565b565b60007f0000000000000000000000000000000000000000000000000000000000000000905090565b7f0000000000000000000000000000000000000000000000000000000000000000341015610d76576040517fc81a27ef00000000000000000000000000000000000000000000000000000000815260040160405180910390fd5b7f000000000000000000000000000000000000000000000000000000000000000073ffffffffffffffffffffffffffffffffffffffff16635d3b1d307f00000000000000000000000000000000000000000000000000000000000000007f000000000000000000000000000000000000000000000000000000000000000060037f000000000000000000000000000000000000000000000000000000000000000060016040518663ffffffff1660e01b8152600401610e39959493929190613162565b602060405180830381600087803b158015610e5357600080fd5b505af1158015610e67573d6000803e3d6000fd5b505050506040513d601f19601f82011682018060405250810190610e8b91906131ca565b6008819055503360096000600854815260200190815260200160002060006101000a81548173ffffffffffffffffffffffffffffffffffffffff021916908373ffffffffffffffffffffffffffffffffffffffff1602179055503373ffffffffffffffffffffffffffffffffffffffff166008547ff873236e6cc0ecc5be1a9a35c95ee5b8d1ac4cc7bfef0cc5060391d6cc98e26b60405160405180910390a3565b6060600b8281548110610f4357610f426131f7565b5b906000526020600020018054610f5890612d95565b80601f0160208091040260200160405190810160405280929190818152602001828054610f8490612d95565b8015610fd15780601f10610fa657610100808354040283529160200191610fd1565b820191906000526020600020905b815481529060010190602001808311610fb457829003601f168201915b50505050509050919050565b6000600760009054906101000a900473ffffffffffffffffffffffffffffffffffffffff16905090565b60606001805461101690612d95565b80601f016020809104026020016040519081016040528092919081815260200182805461104290612d95565b801561108f5780601f106110645761010080835404028352916020019161108f565b820191906000526020600020905b81548152906001019060200180831161107257829003601f168201915b5050505050905090565b6110ab6110a461150c565b8383611bc2565b5050565b60096020528060005260406000206000915054906101000a900473ffffffffffffffffffffffffffffffffffffffff1681565b6000806000905060006110f3610b41565b905060005b600381101561118c57828510158015611132575081816003811061111f5761111e6131f7565b5b60200201518361112f9190613255565b85105b156111545780600281111561114a57611149612b5c565b5b93505050506111bf565b818160038110611167576111666131f7565b5b6020020151836111779190613255565b92508080611184906132ab565b9150506110f8565b506040517f77e1c4ca00000000000000000000000000000000000000000000000000000000815260040160405180910390fd5b919050565b6111d56111cf61150c565b83611782565b611214576040517f08c379a000000000000000000000000000000000000000000000000000000000815260040161120b90612f86565b60405180910390fd5b61122084848484611d2f565b50505050565b6060611231826114c1565b600060066000848152602001908152602001600020805461125190612d95565b80601f016020809104026020016040519081016040528092919081815260200182805461127d90612d95565b80156112ca5780601f1061129f576101008083540402835291602001916112ca565b820191906000526020600020905b8154815290600101906020018083116112ad57829003601f168201915b5050505050905060006112db611d8b565b90506000815114156112f1578192505050611334565b60008251111561132657808260405160200161130e929190613330565b60405160208183030381529060405292505050611334565b61132f84611da2565b925050505b919050565b60085481565b6000600560008473ffffffffffffffffffffffffffffffffffffffff1673ffffffffffffffffffffffffffffffffffffffff16815260200190815260200160002060008373ffffffffffffffffffffffffffffffffffffffff1673ffffffffffffffffffffffffffffffffffffffff16815260200190815260200160002060009054906101000a900460ff16905092915050565b6113db611a7e565b600073ffffffffffffffffffffffffffffffffffffffff168173ffffffffffffffffffffffffffffffffffffffff16141561144b576040517f08c379a0000000000000000000000000000000000000000000000000000000008152600401611442906133c6565b60405180910390fd5b61145481611afc565b50565b60007f01ffc9a7000000000000000000000000000000000000000000000000000000007bffffffffffffffffffffffffffffffffffffffffffffffffffffffff1916827bffffffffffffffffffffffffffffffffffffffffffffffffffffffff1916149050919050565b6114ca81611e0a565b611509576040517f08c379a000000000000000000000000000000000000000000000000000000000815260040161150090613038565b60405180910390fd5b50565b600033905090565b816004600083815260200190815260200160002060006101000a81548173ffffffffffffffffffffffffffffffffffffffff021916908373ffffffffffffffffffffffffffffffffffffffff160217905550808273ffffffffffffffffffffffffffffffffffffffff1661158783610b6c565b73ffffffffffffffffffffffffffffffffffffffff167f8c5be1e5ebec7d5bd14f71427d1e84f3dd0314c0f7b2291e5b200ac8c7c3b92560405160405180910390a45050565b60006009600084815260200190815260200160002060009054906101000a900473ffffffffffffffffffffffffffffffffffffffff1690506000600a5490506000606484600081518110611624576116236131f7565b5b60200260200101516116369190613415565b90506000611643826110e2565b9050600a54600a60008282546116599190613255565b9250508190555061166a8484611e76565b61172c83600b83600281111561168357611682612b5c565b5b81548110611694576116936131f7565b5b9060005260206000200180546116a990612d95565b80601f01602080910402602001604051908101604052809291908181526020018280546116d590612d95565b80156117225780601f106116f757610100808354040283529160200191611722565b820191906000526020600020905b81548152906001019060200180831161170557829003601f168201915b5050505050611e94565b8373ffffffffffffffffffffffffffffffffffffffff167f8a269f26b688e110e9cbd887d163dab35cae678fa353a0292de532c0cac1ecdc826040516117729190612bd3565b60405180910390a2505050505050565b60008061178e83610b6c565b90508073ffffffffffffffffffffffffffffffffffffffff168473ffffffffffffffffffffffffffffffffffffffff1614806117d057506117cf818561133f565b5b8061180e57508373ffffffffffffffffffffffffffffffffffffffff166117f6846107e9565b73ffffffffffffffffffffffffffffffffffffffff16145b91505092915050565b8273ffffffffffffffffffffffffffffffffffffffff1661183782610b6c565b73ffffffffffffffffffffffffffffffffffffffff161461188d576040517f08c379a0000000000000000000000000000000000000000000000000000000008152600401611884906134b8565b60405180910390fd5b600073ffffffffffffffffffffffffffffffffffffffff168273ffffffffffffffffffffffffffffffffffffffff1614156118fd576040517f08c379a00000000000000000000000000000000000000000000000000000000081526004016118f49061354a565b60405180910390fd5b611908838383611f08565b611913600082611514565b6001600360008573ffffffffffffffffffffffffffffffffffffffff1673ffffffffffffffffffffffffffffffffffffffff1681526020019081526020016000206000828254611963919061356a565b925050819055506001600360008473ffffffffffffffffffffffffffffffffffffffff1673ffffffffffffffffffffffffffffffffffffffff16815260200190815260200160002060008282546119ba9190613255565b92505081905550816002600083815260200190815260200160002060006101000a81548173ffffffffffffffffffffffffffffffffffffffff021916908373ffffffffffffffffffffffffffffffffffffffff160217905550808273ffffffffffffffffffffffffffffffffffffffff168473ffffffffffffffffffffffffffffffffffffffff167fddf252ad1be2c89b69c2b068fc378daa952ba7f163c4a11628f55a4df523b3ef60405160405180910390a4611a79838383611f0d565b505050565b611a8661150c565b73ffffffffffffffffffffffffffffffffffffffff16611aa4610fdd565b73ffffffffffffffffffffffffffffffffffffffff1614611afa576040517f08c379a0000000000000000000000000000000000000000000000000000000008152600401611af1906135ea565b60405180910390fd5b565b6000600760009054906101000a900473ffffffffffffffffffffffffffffffffffffffff16905081600760006101000a81548173ffffffffffffffffffffffffffffffffffffffff021916908373ffffffffffffffffffffffffffffffffffffffff1602179055508173ffffffffffffffffffffffffffffffffffffffff168173ffffffffffffffffffffffffffffffffffffffff167f8be0079c531659141344cd1fd0a4f28419497f9722a3daafe3b4186f6b6457e060405160405180910390a35050565b8173ffffffffffffffffffffffffffffffffffffffff168373ffffffffffffffffffffffffffffffffffffffff161415611c31576040517f08c379a0000000000000000000000000000000000000000000000000000000008152600401611c2890613656565b60405180910390fd5b80600560008573ffffffffffffffffffffffffffffffffffffffff1673ffffffffffffffffffffffffffffffffffffffff16815260200190815260200160002060008473ffffffffffffffffffffffffffffffffffffffff1673ffffffffffffffffffffffffffffffffffffffff16815260200190815260200160002060006101000a81548160ff0219169083151502179055508173ffffffffffffffffffffffffffffffffffffffff168373ffffffffffffffffffffffffffffffffffffffff167f17307eab39ab6107e8899845ad3d59bd9653f200f220920489ca2b5937696c3183604051611d2291906125db565b60405180910390a3505050565b611d3a848484611817565b611d4684848484611f12565b611d85576040517f08c379a0000000000000000000000000000000000000000000000000000000008152600401611d7c906136e8565b60405180910390fd5b50505050565b606060405180602001604052806000815250905090565b6060611dad826114c1565b6000611db7611d8b565b90506000815111611dd75760405180602001604052806000815250611e02565b80611de1846120a9565b604051602001611df2929190613330565b6040516020818303038152906040525b915050919050565b60008073ffffffffffffffffffffffffffffffffffffffff166002600084815260200190815260200160002060009054906101000a900473ffffffffffffffffffffffffffffffffffffffff1673ffffffffffffffffffffffffffffffffffffffff1614159050919050565b611e9082826040518060200160405280600081525061220a565b5050565b611e9d82611e0a565b611edc576040517f08c379a0000000000000000000000000000000000000000000000000000000008152600401611ed39061377a565b60405180910390fd5b80600660008481526020019081526020016000209080519060200190611f03929190612484565b505050565b505050565b505050565b6000611f338473ffffffffffffffffffffffffffffffffffffffff16612265565b1561209c578373ffffffffffffffffffffffffffffffffffffffff1663150b7a02611f5c61150c565b8786866040518563ffffffff1660e01b8152600401611f7e94939291906137ef565b602060405180830381600087803b158015611f9857600080fd5b505af1925050508015611fc957506040513d601f19601f82011682018060405250810190611fc69190613850565b60015b61204c573d8060008114611ff9576040519150601f19603f3d011682016040523d82523d6000602084013e611ffe565b606091505b50600081511415612044576040517f08c379a000000000000000000000000000000000000000000000000000000000815260040161203b906136e8565b60405180910390fd5b805181602001fd5b63150b7a0260e01b7bffffffffffffffffffffffffffffffffffffffffffffffffffffffff1916817bffffffffffffffffffffffffffffffffffffffffffffffffffffffff1916149150506120a1565b600190505b949350505050565b606060008214156120f1576040518060400160405280600181526020017f30000000000000000000000000000000000000000000000000000000000000008152509050612205565b600082905060005b6000821461212357808061210c906132ab565b915050600a8261211c919061387d565b91506120f9565b60008167ffffffffffffffff81111561213f5761213e61280b565b5b6040519080825280601f01601f1916602001820160405280156121715781602001600182028036833780820191505090505b5090505b600085146121fe5760018261218a919061356a565b9150600a856121999190613415565b60306121a59190613255565b60f81b8183815181106121bb576121ba6131f7565b5b60200101907effffffffffffffffffffffffffffffffffffffffffffffffffffffffffffff1916908160001a905350600a856121f7919061387d565b9450612175565b8093505050505b919050565b6122148383612288565b6122216000848484611f12565b612260576040517f08c379a0000000000000000000000000000000000000000000000000000000008152600401612257906136e8565b60405180910390fd5b505050565b6000808273ffffffffffffffffffffffffffffffffffffffff163b119050919050565b600073ffffffffffffffffffffffffffffffffffffffff168273ffffffffffffffffffffffffffffffffffffffff1614156122f8576040517f08c379a00000000000000000000000000000000000000000000000000000000081526004016122ef906138fa565b60405180910390fd5b61230181611e0a565b15612341576040517f08c379a000000000000000000000000000000000000000000000000000000000815260040161233890613966565b60405180910390fd5b61234d60008383611f08565b6001600360008473ffffffffffffffffffffffffffffffffffffffff1673ffffffffffffffffffffffffffffffffffffffff168152602001908152602001600020600082825461239d9190613255565b92505081905550816002600083815260200190815260200160002060006101000a81548173ffffffffffffffffffffffffffffffffffffffff021916908373ffffffffffffffffffffffffffffffffffffffff160217905550808273ffffffffffffffffffffffffffffffffffffffff16600073ffffffffffffffffffffffffffffffffffffffff167fddf252ad1be2c89b69c2b068fc378daa952ba7f163c4a11628f55a4df523b3ef60405160405180910390a461245e60008383611f0d565b5050565b6040518060600160405280600390602082028036833780820191505090505090565b82805461249090612d95565b90600052602060002090601f0160209004810192826124b257600085556124f9565b82601f106124cb57805160ff19168380011785556124f9565b828001600101855582156124f9579182015b828111156124f85782518255916020019190600101906124dd565b5b509050612506919061250a565b5090565b5b8082111561252357600081600090555060010161250b565b5090565b6000604051905090565b600080fd5b600080fd5b60007fffffffff0000000000000000000000000000000000000000000000000000000082169050919050565b6125708161253b565b811461257b57600080fd5b50565b60008135905061258d81612567565b92915050565b6000602082840312156125a9576125a8612531565b5b60006125b78482850161257e565b91505092915050565b60008115159050919050565b6125d5816125c0565b82525050565b60006020820190506125f060008301846125cc565b92915050565b600081519050919050565b600082825260208201905092915050565b60005b83811015612630578082015181840152602081019050612615565b8381111561263f576000848401525b50505050565b6000601f19601f8301169050919050565b6000612661826125f6565b61266b8185612601565b935061267b818560208601612612565b61268481612645565b840191505092915050565b600060208201905081810360008301526126a98184612656565b905092915050565b6000819050919050565b6126c4816126b1565b81146126cf57600080fd5b50565b6000813590506126e1816126bb565b92915050565b6000602082840312156126fd576126fc612531565b5b600061270b848285016126d2565b91505092915050565b600073ffffffffffffffffffffffffffffffffffffffff82169050919050565b600061273f82612714565b9050919050565b61274f81612734565b82525050565b600060208201905061276a6000830184612746565b92915050565b61277981612734565b811461278457600080fd5b50565b60008135905061279681612770565b92915050565b600080604083850312156127b3576127b2612531565b5b60006127c185828601612787565b92505060206127d2858286016126d2565b9150509250929050565b6127e5816126b1565b82525050565b600060208201905061280060008301846127dc565b92915050565b600080fd5b7f4e487b7100000000000000000000000000000000000000000000000000000000600052604160045260246000fd5b61284382612645565b810181811067ffffffffffffffff821117156128625761286161280b565b5b80604052505050565b6000612875612527565b9050612881828261283a565b919050565b600067ffffffffffffffff8211156128a1576128a061280b565b5b602082029050602081019050919050565b600080fd5b60006128ca6128c584612886565b61286b565b905080838252602082019050602084028301858111156128ed576128ec6128b2565b5b835b81811015612916578061290288826126d2565b8452602084019350506020810190506128ef565b5050509392505050565b600082601f83011261293557612934612806565b5b81356129458482602086016128b7565b91505092915050565b6000806040838503121561296557612964612531565b5b6000612973858286016126d2565b925050602083013567ffffffffffffffff81111561299457612993612536565b5b6129a085828601612920565b9150509250929050565b6000806000606084860312156129c3576129c2612531565b5b60006129d186828701612787565b93505060206129e286828701612787565b92505060406129f3868287016126d2565b9150509250925092565b600060039050919050565b600081905092915050565b6000819050919050565b612a26816126b1565b82525050565b6000612a388383612a1d565b60208301905092915050565b6000602082019050919050565b612a5a816129fd565b612a648184612a08565b9250612a6f82612a13565b8060005b83811015612aa0578151612a878782612a2c565b9650612a9283612a44565b925050600181019050612a73565b505050505050565b6000606082019050612abd6000830184612a51565b92915050565b600060208284031215612ad957612ad8612531565b5b6000612ae784828501612787565b91505092915050565b612af9816125c0565b8114612b0457600080fd5b50565b600081359050612b1681612af0565b92915050565b60008060408385031215612b3357612b32612531565b5b6000612b4185828601612787565b9250506020612b5285828601612b07565b9150509250929050565b7f4e487b7100000000000000000000000000000000000000000000000000000000600052602160045260246000fd5b60038110612b9c57612b9b612b5c565b5b50565b6000819050612bad82612b8b565b919050565b6000612bbd82612b9f565b9050919050565b612bcd81612bb2565b82525050565b6000602082019050612be86000830184612bc4565b92915050565b600080fd5b600067ffffffffffffffff821115612c0e57612c0d61280b565b5b612c1782612645565b9050602081019050919050565b82818337600083830152505050565b6000612c46612c4184612bf3565b61286b565b905082815260208101848484011115612c6257612c61612bee565b5b612c6d848285612c24565b509392505050565b600082601f830112612c8a57612c89612806565b5b8135612c9a848260208601612c33565b91505092915050565b60008060008060808587031215612cbd57612cbc612531565b5b6000612ccb87828801612787565b9450506020612cdc87828801612787565b9350506040612ced878288016126d2565b925050606085013567ffffffffffffffff811115612d0e57612d0d612536565b5b612d1a87828801612c75565b91505092959194509250565b60008060408385031215612d3d57612d3c612531565b5b6000612d4b85828601612787565b9250506020612d5c85828601612787565b9150509250929050565b7f4e487b7100000000000000000000000000000000000000000000000000000000600052602260045260246000fd5b60006002820490506001821680612dad57607f821691505b60208210811415612dc157612dc0612d66565b5b50919050565b7f4552433732313a20617070726f76616c20746f2063757272656e74206f776e6560008201527f7200000000000000000000000000000000000000000000000000000000000000602082015250565b6000612e23602183612601565b9150612e2e82612dc7565b604082019050919050565b60006020820190508181036000830152612e5281612e16565b9050919050565b7f4552433732313a20617070726f76652063616c6c6572206973206e6f7420746f60008201527f6b656e206f776e6572206e6f7220617070726f76656420666f7220616c6c0000602082015250565b6000612eb5603e83612601565b9150612ec082612e59565b604082019050919050565b60006020820190508181036000830152612ee481612ea8565b9050919050565b6000604082019050612f006000830185612746565b612f0d6020830184612746565b9392505050565b7f4552433732313a2063616c6c6572206973206e6f7420746f6b656e206f776e6560008201527f72206e6f7220617070726f766564000000000000000000000000000000000000602082015250565b6000612f70602e83612601565b9150612f7b82612f14565b604082019050919050565b60006020820190508181036000830152612f9f81612f63565b9050919050565b600081905092915050565b50565b6000612fc1600083612fa6565b9150612fcc82612fb1565b600082019050919050565b6000612fe282612fb4565b9150819050919050565b7f4552433732313a20696e76616c696420746f6b656e2049440000000000000000600082015250565b6000613022601883612601565b915061302d82612fec565b602082019050919050565b6000602082019050818103600083015261305181613015565b9050919050565b7f4552433732313a2061646472657373207a65726f206973206e6f74206120766160008201527f6c6964206f776e65720000000000000000000000000000000000000000000000602082015250565b60006130b4602983612601565b91506130bf82613058565b604082019050919050565b600060208201905081810360008301526130e3816130a7565b9050919050565b6000819050919050565b6130fd816130ea565b82525050565b600067ffffffffffffffff82169050919050565b61312081613103565b82525050565b600061ffff82169050919050565b61313d81613126565b82525050565b600063ffffffff82169050919050565b61315c81613143565b82525050565b600060a08201905061317760008301886130f4565b6131846020830187613117565b6131916040830186613134565b61319e6060830185613153565b6131ab6080830184613153565b9695505050505050565b6000815190506131c4816126bb565b92915050565b6000602082840312156131e0576131df612531565b5b60006131ee848285016131b5565b91505092915050565b7f4e487b7100000000000000000000000000000000000000000000000000000000600052603260045260246000fd5b7f4e487b7100000000000000000000000000000000000000000000000000000000600052601160045260246000fd5b6000613260826126b1565b915061326b836126b1565b9250827fffffffffffffffffffffffffffffffffffffffffffffffffffffffffffffffff038211156132a05761329f613226565b5b828201905092915050565b60006132b6826126b1565b91507fffffffffffffffffffffffffffffffffffffffffffffffffffffffffffffffff8214156132e9576132e8613226565b5b600182019050919050565b600081905092915050565b600061330a826125f6565b61331481856132f4565b9350613324818560208601612612565b80840191505092915050565b600061333c82856132ff565b915061334882846132ff565b91508190509392505050565b7f4f776e61626c653a206e6577206f776e657220697320746865207a65726f206160008201527f6464726573730000000000000000000000000000000000000000000000000000602082015250565b60006133b0602683612601565b91506133bb82613354565b604082019050919050565b600060208201905081810360008301526133df816133a3565b9050919050565b7f4e487b7100000000000000000000000000000000000000000000000000000000600052601260045260246000fd5b6000613420826126b1565b915061342b836126b1565b92508261343b5761343a6133e6565b5b828206905092915050565b7f4552433732313a207472616e736665722066726f6d20696e636f72726563742060008201527f6f776e6572000000000000000000000000000000000000000000000000000000602082015250565b60006134a2602583612601565b91506134ad82613446565b604082019050919050565b600060208201905081810360008301526134d181613495565b9050919050565b7f4552433732313a207472616e7366657220746f20746865207a65726f2061646460008201527f7265737300000000000000000000000000000000000000000000000000000000602082015250565b6000613534602483612601565b915061353f826134d8565b604082019050919050565b6000602082019050818103600083015261356381613527565b9050919050565b6000613575826126b1565b9150613580836126b1565b92508282101561359357613592613226565b5b828203905092915050565b7f4f776e61626c653a2063616c6c6572206973206e6f7420746865206f776e6572600082015250565b60006135d4602083612601565b91506135df8261359e565b602082019050919050565b60006020820190508181036000830152613603816135c7565b9050919050565b7f4552433732313a20617070726f766520746f2063616c6c657200000000000000600082015250565b6000613640601983612601565b915061364b8261360a565b602082019050919050565b6000602082019050818103600083015261366f81613633565b9050919050565b7f4552433732313a207472616e7366657220746f206e6f6e20455243373231526560008201527f63656976657220696d706c656d656e7465720000000000000000000000000000602082015250565b60006136d2603283612601565b91506136dd82613676565b604082019050919050565b60006020820190508181036000830152613701816136c5565b9050919050565b7f45524337323155524953746f726167653a2055524920736574206f66206e6f6e60008201527f6578697374656e7420746f6b656e000000000000000000000000000000000000602082015250565b6000613764602e83612601565b915061376f82613708565b604082019050919050565b6000602082019050818103600083015261379381613757565b9050919050565b600081519050919050565b600082825260208201905092915050565b60006137c18261379a565b6137cb81856137a5565b93506137db818560208601612612565b6137e481612645565b840191505092915050565b60006080820190506138046000830187612746565b6138116020830186612746565b61381e60408301856127dc565b818103606083015261383081846137b6565b905095945050505050565b60008151905061384a81612567565b92915050565b60006020828403121561386657613865612531565b5b60006138748482850161383b565b91505092915050565b6000613888826126b1565b9150613893836126b1565b9250826138a3576138a26133e6565b5b828204905092915050565b7f4552433732313a206d696e7420746f20746865207a65726f2061646472657373600082015250565b60006138e4602083612601565b91506138ef826138ae565b602082019050919050565b60006020820190508181036000830152613913816138d7565b9050919050565b7f4552433732313a20746f6b656e20616c7265616479206d696e74656400000000600082015250565b6000613950601c83612601565b915061395b8261391a565b602082019050919050565b6000602082019050818103600083015261397f81613943565b905091905056fea264697066735822122077ddc3d31518cc9ecde3a77bd5bc31903c70ef229be329e815c9b18a4134bf8c64736f6c63430008080033",
  "linkReferences": {},
  "deployedLinkReferences": {}
}